{
  "contractName": "Logger",
  "abi": [
    {
      "constant": true,
      "inputs": [],
      "name": "savedNumber",
      "outputs": [
        {
          "name": "",
          "type": "uint256"
        }
      ],
      "payable": false,
      "stateMutability": "view",
      "type": "function"
    },
    {
      "constant": true,
      "inputs": [],
      "name": "owner",
      "outputs": [
        {
          "name": "",
          "type": "address"
        }
      ],
      "payable": false,
      "stateMutability": "view",
      "type": "function"
    },
    {
      "inputs": [],
      "payable": false,
      "stateMutability": "nonpayable",
      "type": "constructor"
    },
    {
      "anonymous": false,
      "inputs": [
        {
          "indexed": false,
          "name": "from",
          "type": "address"
        },
        {
          "indexed": false,
          "name": "someNumber",
          "type": "uint256"
        }
      ],
      "name": "stored",
      "type": "event"
    },
    {
      "constant": false,
      "inputs": [
        {
          "name": "someNumber",
          "type": "uint256"
        }
      ],
      "name": "store",
      "outputs": [],
      "payable": false,
      "stateMutability": "nonpayable",
      "type": "function"
    },
    {
      "constant": false,
      "inputs": [
        {
          "name": "newOwner",
          "type": "address"
        }
      ],
      "name": "updateOwner",
      "outputs": [],
      "payable": false,
      "stateMutability": "nonpayable",
      "type": "function"
    }
  ],
  "bytecode": "0x608060405234801561001057600080fd5b50336000806101000a81548173ffffffffffffffffffffffffffffffffffffffff021916908373ffffffffffffffffffffffffffffffffffffffff1602179055506000600181905550610314806100686000396000f300608060405260043610610062576000357c0100000000000000000000000000000000000000000000000000000000900463ffffffff16806307604a7e146100675780636057361d14610092578063880cdc31146100bf5780638da5cb5b14610102575b600080fd5b34801561007357600080fd5b5061007c610159565b6040518082815260200191505060405180910390f35b34801561009e57600080fd5b506100bd6004803603810190808035906020019092919050505061015f565b005b3480156100cb57600080fd5b50610100600480360381019080803573ffffffffffffffffffffffffffffffffffffffff16906020019092919050505061022a565b005b34801561010e57600080fd5b506101176102c3565b604051808273ffffffffffffffffffffffffffffffffffffffff1673ffffffffffffffffffffffffffffffffffffffff16815260200191505060405180910390f35b60015481565b6000809054906101000a900473ffffffffffffffffffffffffffffffffffffffff1673ffffffffffffffffffffffffffffffffffffffff163373ffffffffffffffffffffffffffffffffffffffff16141561022757806001819055507fc9db20adedc6cf2b5d25252b101ab03e124902a73fcb12b753f3d1aaa2d8f9f53382604051808373ffffffffffffffffffffffffffffffffffffffff1673ffffffffffffffffffffffffffffffffffffffff1681526020018281526020019250505060405180910390a15b50565b6000809054906101000a900473ffffffffffffffffffffffffffffffffffffffff1673ffffffffffffffffffffffffffffffffffffffff163373ffffffffffffffffffffffffffffffffffffffff1614156102c057806000806101000a81548173ffffffffffffffffffffffffffffffffffffffff021916908373ffffffffffffffffffffffffffffffffffffffff1602179055505b50565b6000809054906101000a900473ffffffffffffffffffffffffffffffffffffffff16815600a165627a7a72305820662237a189d35697f00db25fb7b8e446eea19e5092e6d333a8278124deb7165d0029",
  "source": "pragma solidity >=0.4.0 <0.6.0;\n\ncontract Logger {\n  address public owner;\n  uint public savedNumber;\n\n\tevent stored(address from, uint someNumber);\n\n  constructor() public {\n    owner = msg.sender;\n    savedNumber = 0;\n  }\n\n  modifier onlyOwner() {\n    if (msg.sender == owner) _;\n  }\n\n  function store(uint someNumber) public onlyOwner {\n\t\tsavedNumber = someNumber;\n    emit stored(msg.sender, someNumber);\n  }\n\n  function updateOwner(address newOwner) public onlyOwner {\n    owner = newOwner;\n  }\n}",
  "sourcePath": "/home/loki/dev/truffle-meet2/contracts/Logger.sol",
  "compiler": {
    "name": "solc",
    "version": "0.4.24+commit.e67f0147.Emscripten.clang"
  },
  "schemaVersion": "2.0.1",
  "updatedAt": "2019-04-26T21:04:20.080Z"
}